:1000000071C000008FC000008DC0000089C10000D9
:1000100098C40000A3C20000DEC1000083C000003D
:1000200081C000007FC000007DC000007BC00000D8
:1000300079C0000077C0000075C0000073C00000E8
:1000400071C000006FC000006DC000006BC00000F8
:1000500069C0000067C0000065C0000063C0000008
:1000600061C000005FC000005DC000005BC0000018
:1000700059C000007CC1000055C0000053C0000002
:10008000D7C100004FC000004DC000004BC00000B1
:1000900049C0000047C0000045C0000043C0000048
:1000A00041C000003FC000003DC000003BC0000058
:1000B00039C0000037C0000035C0000033C0000068
:1000C00031C000002FC000002DC000002BC0000078
:1000D00029C0000027C0000025C0000023C0000088
:1000E00021C0000011241FBECFEFD1E2DEBFCDBF83
:1000F00000E00CBF13E0A0E0B2E0ECEAF1E100E0C8
:100100000BBF02C007900D92A830B107D9F724E0C9
:10011000A8E0B3E001C01D92A831B207E1F777D59E
:100120000C94D4081BC187B1807F87B9459A469843
:1001300082E08A95F1F700C0479A92E09A95F1F72C
:1001400000C086B18295807F92E09A95F1F700C059
:10015000479895E09A95F1F70000479A92E09A95B2
:10016000F1F700C096B192E09A95F1F700C0479878
:1001700095E09A95F1F700008823F4F2459887B14D
:100180008F6087B90895282F22952F708F70611185
:1001900002C0469801C0469A92E09A95F1F700C0D5
:1001A000479A98B1907F922B98B995E09A95F1F77C
:1001B0000000479895E09A95F1F70000479A98B1AA
:1001C000907F892B88B985E08A95F1F700004798E0
:1001D00095E09A95F1F70000A6CF0895CF93C82F28
:1001E0002FEF86E791E0215080409040E1F700C07A
:1001F000000087B18F6087B93F9A3E9A3D9A88B1D7
:10020000807F88B947984598469800C000C0000094
:10021000479A419A25E02A95F1F70000479885E032
:100220008A95F1F700007FDF60E08C2F8C60ABDFF8
:1002300060E088E2A8DFCF910895CF93DF93EC01CF
:100240008881882331F0219661E09DDF89918111B9
:10025000FBCFDF91CF910895EF92FF920F931F9301
:10026000CF93DF9300D01F921F92CDB7DEB77B01F3
:10027000FE01319625E0DF011D922A95E9F70097EE
:1002800051F035962AE030E0B90146D68293862FA8
:10029000972F0097C9F7BFEFEB16FB0669F489812A
:1002A00081111DC0FE01329600E010E00F5F1F4F6C
:1002B00081918823D9F30FC005E010E00E191F09C2
:1002C0000AC0F80181918F0161E0805D5CDF0E154D
:1002D0001F05B9F711C0053011051CF00DC000E075
:1002E00010E081E090E08C0F9D1F080F191F7E0128
:1002F00096E0E90EF11CE5CF0F900F900F900F9054
:100300000F90DF91CF911F910F91FF90EF90089583
:10031000883228F46111806460E0806834CF0895E9
:100320001F920F920FB60F9211240BB60F928F935C
:10033000EF93FF9380EC80930B014A9B05C0EAE7A3
:10034000F0E0808180648083FF91EF918F910F9026
:100350000BBE0F900FBE0F901F9018951F920F921B
:100360000FB60F9211248AEE92E067DFFFCF1F9243
:100370000F920FB60F9211240BB60F922F933F934B
:100380008F939F93EF93FF934A9B05C0EAE7F0E0BA
:100390008081806480832091780030917900809101
:1003A000E6029091E7028217930740F0809178006F
:1003B000909179009093E7028093E602FF91EF918C
:1003C0009F918F913F912F910F900BBE0F900FBE79
:1003D0000F901F9018951F920F920FB60F92112435
:1003E0000BB60F928F939F93EF93FF93E1E9F0E0A9
:1003F000808185608083808188608083E1E7F0E090
:100400008081826080838EE998E99093990080933F
:1004100098001092950010929400FF91EF919F9197
:100420008F910F900BBE0F900FBE0F901F901895DD
:100430001F920F920FB60F9211240BB60F922F93AB
:100440003F934F935F936F937F938F939F93AF935C
:10045000BF93CF93EF93FF93CFE0C5B960E081E006
:1004600092DE60E080E054DF84EF92E0E6DE80918F
:1004700014039091150363E070E0EEDE88EF92E0E4
:10048000DCDE8CEF92E0D9DE80910C0490910D04BB
:1004900063E070E0E1DE61E080E03ADF80E093E07D
:1004A000CCDE809110049091110463E070E0D4DE02
:1004B00088EF92E0C2DE84E093E0BFDE80913403F7
:1004C0009091350363E070E0C7DE81E090E09093A7
:1004D000170380931603C5B9FF91EF91CF91BF9198
:1004E000AF919F918F917F916F915F914F913F91CC
:1004F0002F910F900BBE0F900FBE0F901F9018956D
:10050000CF93DF93EC0184E090E02DD5998388832D
:10051000FC0113821282DF91CF910895AC01E1E8D2
:10052000F0E090819860908388EE93E0909389004A
:10053000809388001092850010928400B19A20E088
:1005400030E005C0B19BFECFB19A2F5F3F4F24171B
:1005500035071CF4B19BF6CFF7CF08951F920F9289
:100560000FB60F9211240BB60F922F933F934F9318
:100570005F936F937F938F939F93AF93BF93EF930B
:10058000FF93649BADC08AE090E0C8DF8091E802F1
:100590009091E902892B09F490C01092E90210921F
:1005A000E80284E190E0BADF8FE085B98AE090E06C
:1005B000B5DF60E081E0E7DD60E080E0A9DE84EFA8
:1005C00092E03BDE60E083E0A3DE80911403909133
:1005D000150362E070E040DE60E085E099DE809126
:1005E000200390912103209114033091150362E0C0
:1005F00070E0821B930B30DE8AEF92E01EDE8CEF00
:1006000092E01BDE60E08BE083DE80910C04909131
:100610000D0462E070E020DE60E08DE079DE809124
:1006200012039091130320910C0430910D0462E0A9
:1006300070E0821B930B10DE61E080E069DE80E0F9
:1006400093E0FBDD61E083E063DE80911004909134
:10065000110462E070E000DE61E085E059DE809127
:10066000240390912503209110043091110462E03D
:1006700070E0821B930BF0DD8AEF92E0DEDD84E018
:1006800093E0DBDD61E08BE043DE80913403909109
:10069000350362E070E0E0DD61E08DE039DE8091FD
:1006A0002A0390912B03209134033091350362E0AB
:1006B00070E0821B930BD0DD0EC081E090E0909340
:1006C000E9028093E80284E190E028DF87E085B9C1
:1006D0008AE090E023DF6499FECF84E190E01EDFA2
:1006E000FF91EF91BF91AF919F918F917F916F910A
:1006F0005F914F913F912F910F900BBE0F900FBEC6
:100700000F901F9018958F929F92AF92BF92CF92A9
:10071000DF92EF92FF920F931F93CF93DF93181600
:1007200019060CF072C08C01C0E0D0E0C12CD12CB5
:100730000F2EF5E38F2EF02D0F2EF6E39F2EF02DCA
:100740000F2EFEE2AF2EF02D0F2EFDE2BF2EF02D6C
:10075000EE24E394F12C20912803309129032F5F9C
:100760003F4F30932903209328032530310529F486
:10077000F0922903E092280310C022303105D1F015
:100780002CF42130310509F03BC007C0233031057E
:10079000F1F02430310541F133C082B8F601EE0F9B
:1007A000FF1FEA5FFD4F80819181B8DE8FEFC81A8D
:1007B000D80A26C092B8F601EE0FFF1FEA5FFD4F80
:1007C00080819181ABDE8FEFC81AD80A19C0A2B818
:1007D000F601EE0FFF1FEA5FFD4F808191819EDEE3
:1007E0008FEFC81AD80A0CC0B2B8F601EE0FFF1F7F
:1007F000EA5FFD4F8081918191DE8FEFC81AD80AA0
:1008000021960C171D0709F0A6CFDF91CF911F91FC
:100810000F91FF90EF90DF90CF90BF90AF909F909F
:100820008F9008958F929F92AF92BF92CF92DF9256
:10083000EF92FF920F931F93CF93DF931816190631
:100840000CF072C08C01C0E0D0E0C12CD12C0F2E76
:10085000FDE28F2EF02D0F2EF6E39F2EF02D0F2EA2
:10086000FEE2AF2EF02D0F2EF5E3BF2EF02D689493
:10087000EE24E2F8F12C2091280330912903215035
:1008800031093093290320932803121613062CF004
:10089000F0922903E092280336C022303105C9F0D6
:1008A00024F42130310541F03AC023303105F1F014
:1008B00024303105A1F527C0B2B8F601EE0FFF1FB5
:1008C000EA5FFD4F8081918129DE8FEFC81AD80A37
:1008D00026C092B8F601EE0FFF1FEA5FFD4F808140
:1008E00091811CDE8FEFC81AD80A19C0A2B8F60190
:1008F000EE0FFF1FEA5FFD4F808191810FDE8FEFCA
:10090000C81AD80A0CC082B8F601EE0FFF1FEA5FC2
:10091000FD4F8081918102DE8FEFC81AD80A21969F
:100920000C171D0709F0A7CFDF91CF911F910F91F1
:10093000FF90EF90DF90CF90BF90AF909F908F90FF
:1009400008951F920F920FB60F9211240BB60F92BB
:100950002F933F934F935F936F937F938F939F93C7
:10096000AF93BF93CF93DF93EF93FF9381E090E03A
:1009700090933D0380933C0380E380930B018FE0D1
:1009800085B984E190E0CADDE0910A03F0910B03A0
:10099000EE0FFF1FEC5BFC4F8081918190933B0336
:1009A00080933A0380913A0390913B032091100386
:1009B00030911103821B930B90930F0380930E03CE
:1009C00080913A0390913B0390931103809310031D
:1009D00080910E0390910F03029731F080910E03E6
:1009E00090910F03029621F484E690E08CDE1FC004
:1009F00080910E0390910F03019731F080910E03C7
:100A000090910F03039621F482E390E07CDE0FC007
:100A100080910E0390910F03019631F080910E03A7
:100A200090910F03039719F482E390E0FBDE60E0FE
:100A300081E0A9DB60E080E06BDCC4E4D3E0888186
:100A4000998164E070E008DC60E086E061DC8A8126
:100A50009B8164E070E000DC61E080E059DC8C8127
:100A60009D8164E070E0F8DB61E086E051DC8E811E
:100A70009F8164E070E0F0DBE0910A03F0910B03EA
:100A8000EE0FFF1FEC5BFC4F80819181892B49F4B5
:100A90008091140390911503019690931503809310
:100AA0001403E0910A03F0910B03EE0FFF1FEC5BC0
:100AB000FC4F80819181029749F4809110049091BC
:100AC000110401969093110480931004E0910A039D
:100AD000F0910B03EE0FFF1FEC5BFC4F80819181C7
:100AE000039749F4809134039091350301969093D4
:100AF000350380933403E0910A03F0910B03EE0F6A
:100B0000FF1FEC5BFC4F80819181019749F480913C
:100B10000C0490910D04019690930D0480930C04A5
:100B200086E990E0FBDC87E085B9FF91EF91DF91EA
:100B3000CF91BF91AF919F918F917F916F915F9175
:100B40004F913F912F910F900BBE0F900FBE0F90C2
:100B50001F90189584B5836084BD84B5806884BD7A
:100B600085B5836085BD85E587BD0895EF92FF92C9
:100B70000F931F93CF93DF930F2EF5E3EF2EF02DFE
:100B80000F2EF6E3FF2EF02D0EE21DE2C1E0D0E0C5
:100B900031C08091280390912903019690932903F5
:100BA000809328038530910529F4D0932903C093BD
:100BB00028030DC08230910579F01CF40197D1F41F
:100BC00006C08330910569F0049781F013C0E2B844
:100BD00084E190E0A3DC0EC0F2B884E190E09EDCFA
:100BE00009C002B984E190E099DC04C012B984E143
:100BF00090E094DC0799CDCF10921103109210036E
:100C0000DF91CF911F910F91FF90EF900895E1E652
:100C1000F0E080E8808381E08083E1E8F0E080819B
:100C200082608083F8948DB38C638DBBE9E6F0E03D
:100C30008081806B8083EAE6F0E080818B60808336
:100C4000EAE7F0E0808188688083ECE7F0E080816B
:100C500081648083789483E0C1DA8FEF87B91DB80F
:100C60001AB880930A0184B98FE381B982E293E0D4
:100C700047DC10922303109222031092410310923A
:100C8000400368DF73DF81E090E090932F0380934F
:100C90002E03109211031092100387E085B9EE2401
:100CA000E394F12C0F2EF0EBCF2EF4E0DF2EF02D9D
:100CB00002E010E0C3E0D0E04A990BC08091E60268
:100CC0009091E702803B944024F4F0922D03E0924F
:100CD0002C0380912C0390912D03892B09F4E4C0FF
:100CE0008091E6029091E7028D32914034F5E091D7
:100CF0000C03F0910D03EE0FFF1FEC5BFC4FF18234
:100D0000E08280910C0390910D03019690930D0366
:100D100080930C038091120390911303019690939A
:100D20001303809312038091120390911303019790
:100D300090930D0480930C049BC08091E6029091E7
:100D4000E702803991406CF18091E6029091E702D0
:100D50008132934034F5E0910C03F0910D03EE0FD6
:100D6000FF1FEC5BFC4FD183C08380910C039091FB
:100D70000D03019690930D0380930C0380912A0339
:100D800090912B03019690932B0380932A038091DB
:100D90002A0390912B03019790933503809334039A
:100DA00067C08091E6029091E702863693406CF12D
:100DB0008091E6029091E702843C934034F5E09103
:100DC0000C03F0910D03EE0FFF1FEC5BFC4F118342
:100DD000008380910C0390910D03019690930D0375
:100DE00080930C03809124039091250301969093A6
:100DF0002503809324038091240390912503019778
:100E0000909311048093100433C08091E602909176
:100E1000E702853C934064F18091E6029091E702FD
:100E2000893E93402CF5E0910C03F0910D03EE0FF9
:100E3000FF1FEC5BFC4F1182108280910C0390919C
:100E40000D03019690930D0380930C038091200372
:100E50009091210301969093210380932003809128
:100E6000200390912103019790931503809314031D
:100E700060E08BE04DDA8091E6029091E70264E059
:100E800070E0EAD961E08BE043DA80910803909149
:100E9000090364E070E0E0D910922D0310922C0356
:100EA000D092E702C092E60280913C0390913D030C
:100EB000019709F510923D0310923C0380910C03B9
:100EC00090910D03089721F410920D0310920C03DA
:100ED00080910A0390910B03019690930B038093EA
:100EE0000A0380910A0390910B03089721F4109252
:100EF0000B0310920A038091160390911703892B1C
:100F000009F4DACE1092910010927100F8941092C8
:100F1000170310921603FBCF97FB072E16F40094CD
:100F200006D077FD08D00BD007FC05D03EF4909595
:100F300081959F4F0895709561957F4F0895AA1BE5
:100F4000BB1B51E107C0AA1FBB1FA617B70710F0B4
:100F5000A61BB70B881F991F5A95A9F780959095E6
:100F6000BC01CD0108950F931F93CF93DF9382307F
:100F7000910510F482E090E0E0911604F0911704DE
:100F800020E030E0A0E0B0E0309719F140815181DD
:100F90000281138148175907C8F08417950769F42F
:100FA000109731F012960C93129713961C9327C04A
:100FB000009316041093170422C02115310519F06F
:100FC0004217530718F49A01BD01EF01DF01F80140
:100FD000DBCF21153105F9F0281B390B2430310501
:100FE00080F48A819B816115710521F0FB01938357
:100FF000828304C09093170480931604FE013296F6
:1010000044C0FE01E20FF31F8193919322503109F6
:10101000398328833AC02091140430911504232B7E
:1010200041F4209102023091030230931504209381
:10103000140420910002309101022115310541F480
:101040002DB73EB74091040250910502241B350B89
:10105000E0911404F0911504E217F307A0F42E1B9D
:101060003F0B2817390778F0AC014E5F5F4F24170C
:10107000350748F04E0F5F1F50931504409314043A
:101080008193919302C0E0E0F0E0CF01DF91CF9136
:101090001F910F910895CF93DF93009709F481C0BA
:1010A000FC01329713821282A0911604B0911704AA
:1010B000109781F420813181820F931F20911404B5
:1010C000309115042817390751F5F0931504E09372
:1010D000140467C0ED0120E030E0CE17DF0740F4D4
:1010E0004A815B819E0141155105F1F0EA01F5CF7E
:1010F000D383C28340815181840F951FC817D907BC
:1011000059F488819981840F951F02969183808379
:101110008A819B81938382832115310529F4F09381
:101120001704E09316043DC0E901FB83EA8349916B
:101130005991C40FD51FEC17FD0761F4808191818F
:10114000840F951F0296E901998388838281938198
:101150009B838A83E0E0F0E012968D919C91139737
:10116000009719F0FD01DC01F7CF8D919C9111974B
:101170009D012E5F3F4F820F931F209114043091E9
:1011800015042817390769F4309729F410921704C9
:101190001092160402C013821282B0931504A09319
:0C11A0001404DF91CF910895F894FFCF64
:1011AC000000180420001A00190018001600130083
:1011BC0010000D000A0007000700070007000700D9
:1011CC0007000700070007000700070007000700DB
:1011DC0007000700070007000700070007000700CB
:1011EC0007000700070007000700070007000700BB
:1011FC0007000700070007000700070007000700AB
:10120C00070007000700070007000700070007009A
:10121C00070007000700070007000700070007008A
:10122C00070007000700070007000700070007007A
:10123C00070007000700070007000700070007006A
:10124C00070007000700070007000700070007005A
:10125C00070007000700070007000700070007004A
:10126C00070007000700070007000700070007003A
:10127C000700070007000A000D00100013001600FD
:10128C00180019001A00B004010042414443414CBB
:10129C004C454400426C3A0020202000416C3A003E
:0812AC0057683A0053743A0040
:00000001FF
